:020000040800F2
:10000000005000206700000861000008610000083F
:1000100061000008610000086100000800000000A5
:10002000000000000000000000000000F5050008CE
:1000300061000008000000000706000881030008B6
:1000400080B584B000AF054A3B1D07CA83E80700AE
:100050003B1D184600F036F8FEE700BF2C060008EE
:1000600080B400AFFEE780B584B000AF114BFB60F9
:10007000114BBB6009E0FB681A68BB681A60BB687B
:100080000433BB60FB680433FB60BB680B4A9342DC
:10009000F1D30B4B7B6005E07B6800221A607B6824
:1000A00004337B607B68054A9342F5D3FFF7C8FFB2
:1000B000FEE700BF38060008000000200000002016
:1000C0000000002080B582B000AF78607B68002B14
:1000D00023D07B68002B20D07B681B78002B01D0BD
:1000E00000F022F87B689B68002B12D07B681B799C
:1000F00003F00F03DBB2002B0BD07B689A687B68A0
:100100001B79C3F30303DBB21946104600F046FA2D
:1001100003E00521034800F041FA00BF0837BD465F
:1001200080BD00BF80841E0080B487B000AF174B35
:100130007B61174B3B613A697B69D31A1A46154BB1
:100140001A607B69FB60FB6801221A70FB68002261
:100150005A607B6903F58053BB60BB6801221A704B
:10016000BB6800225A607B6903F5CB537B607B68D8
:1001700001221A707B6800225A60074B01221A7014
:1001800000BF1C37BD4680BC704700BF5A29002005
:100190005A390020040000200000002080B485B0FF
:1001A00000AF7860164BFB60FB6803F580537A68FC
:1001B0009A4201D208231DE0FB6803F580537A6858
:1001C0009A4207D3FB6803F5CB537A689A4201D26F
:1001D00010230FE0FB6803F5CB537A689A4201D3F2
:1001E000202307E0FB6803F5EF537A689A4201D3B6
:1001F0000023FFE718461437BD4680BC704700BF98
:100200005A29002080B584B000AF78600B46FB709F
:100210007868FFF7C3FF0346FB73FB7B002B0DD011
:10022000FB7B7A681344BB60B868FFF7B7FF0346EF
:100230001A46FB7B934201D1012300E000231846BC
:100240001037BD4680BD80B588B000AF78603E4BAA
:100250001B78002B01D1002372E03C4BFB61FB6952
:10026000BB617B6808337B607B680F2B07D97B6899
:100270001F2B04D8FB6903F58053FB6106E07B6804
:100280001F2B03D9FB6903F5CB53FB61F869FFF71B
:1002900085FF0346FB757B68DBB21946F869FFF7FB
:1002A000B1FF0346BB75BB691B78002B06D0FB7DF5
:1002B0007A689A4202D9BB7D002B10D1BB7D002BFE
:1002C00001D100233CE0BB695B68002B05D0BB6912
:1002D0005B68FB61FB69BB61E5E7002330E000BFC1
:1002E000BB6900221A70FB690833FB61FB693B6143
:1002F000FB7D083BFA691344FB61F869FFF74EFF89
:1003000003461946F869FFF77DFF0346002B17D017
:10031000BB695B68002B02D10D4AFB6913600C4B73
:100320001B68FA699A420BD1094B1A68BB695A607B
:10033000FB69FB60FB6801221A70FB6800225A60AF
:1003400018462037BD4680BD000000205A290020F5
:100350000800002080B485B000AF7860074B1B78A0
:10036000002B06D07B68083BFB60FB6801221A70FB
:1003700000E000BF1437BD4680BC7047000000207D
:1003800080B400AF034B4FF080521A6000BFBD46EF
:1003900080BC704704ED00E080B483B000AF7860AB
:1003A000084A7B68013B1360074B00221A60074B29
:1003B0001B68064A43F00703136000BF0C37BD46B5
:1003C00080BC704714E000E018E000E010E000E0BE
:1003D00098B500AF154B1C6800F006F902461449A9
:1003E00023465B0123441B010B4403F502731A608F
:1003F0000E4B1B6801330D4A13600C4B1A680D4BF2
:100400001B689A4202D3094B00221A60074B1A68F4
:10041000074913465B0113441B010B4403F50273A8
:100420001B68184600F0E3F800BF98BD542900206F
:10043000100000205029002080B400AF084B00229B
:100440001A60074B1A68074913465B0113441B01E6
:100450000B4403F502731B681846BD4680BC704709
:10046000542900201000002080B485B000AF7860CF
:10047000464B1B78002B00F08280454B1B781A46B8
:10048000444B1B689A427CD9424B1A6813465B0165
:1004900013441B01404A1344FB60FB687A681A60EE
:1004A000FB6803F50273BB60BB68043BBB60BB68C1
:1004B0004FF080721A60BB68043BBB607A68BB680F
:1004C0001A60BB68043BBB60BB6800221A60BB6853
:1004D000043BBB60BB6800221A60BB68043BBB6086
:1004E000BB6800221A60BB68043BBB60BB6800228B
:1004F0001A60BB68043BBB60BB6800221A60BB6823
:10050000043BBB60BB6800221A60BB68043BBB6055
:10051000BB6800221A60BB68043BBB60BB6800225A
:100520001A60BB68043BBB60BB6800221A60BB68F2
:10053000043BBB60BB6800221A60BB68043BBB6025
:10054000BB6800221A60BB68043BBB60BB6800222A
:100550001A60BB68043BBB60BB6800221A60BB68C2
:10056000043BBB60BB6800221A60FB68BA68C3F832
:100570000822084B1B680133064A136002E000BFE3
:1005800000E000BF1437BD4680BC704758290020EA
:1005900059290020502900201000002080B582B089
:1005A00000AF78600B46FB700C4B1B78002B11D111
:1005B000FB78142B0DD80A4AFB781370094B0022E4
:1005C0001A607868FFF7E8FE00DF044B01221A701A
:1005D00000E000BF0837BD4680BD00BF582900209D
:1005E0005929002054290020EFF30980704780F337
:1005F00009887047FFF720FFB0E8F00F80F3098803
:100600006FF0020E7047EFF3098020E9F00F80F3DE
:10061000098800B5FFF7DCFE5DF804EBEFF3098015
:0A062000B0E8F00F80F3098870477E
:0C062C00010000000400000080841E009B
:0400000508000040AF
:00000001FF
